No.     Time           Source                Destination           Protocol Length Info
     73 83.649700      192.168.1.100         192.168.1.15          UDP      199    49154 → 1780 Len=157

Frame 73: 199 bytes on wire (1592 bits), 199 bytes captured (1592 bits) on interface 0
    Interface id: 0 (\Device\NPF_{F364F244-0C09-44C8-890E-8B89285744D3})
    Encapsulation type: Ethernet (1)
    Arrival Time: Oct 27, 2018 22:37:54.597917000 Paris, Madrid (heure d’été)
    [Time shift for this packet: 0.000000000 seconds]
    Epoch Time: 1540672674.597917000 seconds
    [Time delta from previous captured frame: 0.001788000 seconds]
    [Time delta from previous displayed frame: 0.000000000 seconds]
    [Time since reference or first frame: 83.649700000 seconds]
    Frame Number: 73
    Frame Length: 199 bytes (1592 bits)
    Capture Length: 199 bytes (1592 bits)
    [Frame is marked: False]
    [Frame is ignored: False]
    [Protocols in frame: eth:ethertype:ip:udp:data]
    [Coloring Rule Name: UDP]
    [Coloring Rule String: udp]
Ethernet II, Src: Espressi_02:72:b4 (24:0a:c4:02:72:b4), Dst: AsustekC_28:cf:d9 (70:4d:7b:28:cf:d9)
    Destination: AsustekC_28:cf:d9 (70:4d:7b:28:cf:d9)
        Address: AsustekC_28:cf:d9 (70:4d:7b:28:cf:d9)
        .... ..0. .... .... .... .... = LG bit: Globally unique address (factory default)
        .... ...0 .... .... .... .... = IG bit: Individual address (unicast)
    Source: Espressi_02:72:b4 (24:0a:c4:02:72:b4)
        Address: Espressi_02:72:b4 (24:0a:c4:02:72:b4)
        .... ..0. .... .... .... .... = LG bit: Globally unique address (factory default)
        .... ...0 .... .... .... .... = IG bit: Individual address (unicast)
    Type: IPv4 (0x0800)
Internet Protocol Version 4, Src: 192.168.1.100, Dst: 192.168.1.15
User Datagram Protocol, Src Port: 49154, Dst Port: 1780
    Source Port: 49154
    Destination Port: 1780
    Length: 165
    Checksum: 0xc10c [unverified]
    [Checksum Status: Unverified]
    [Stream index: 7]
Data (157 bytes)
    Data: 02080000240ac4ffff0272b47b2273746174223a7b227469...
    [Length: 157]

0000  70 4d 7b 28 cf d9 24 0a c4 02 72 b4 08 00 45 00   pM{(..$...r...E.
0010  00 b9 00 05 00 00 ff 11 37 6b c0 a8 01 64 c0 a8   ........7k...d..
0020  01 0f c0 02 06 f4 00 a5 c1 0c 02 08 00 00 24 0a   ..............$.
0030  c4 ff ff 02 72 b4 7b 22 73 74 61 74 22 3a 7b 22   ....r.{"stat":{"
0040  74 69 6d 65 22 3a 22 32 30 31 38 2d 31 30 2d 32   time":"2018-10-2
0050  37 20 32 30 3a 33 37 3a 35 33 20 47 4d 54 22 2c   7 20:37:53 GMT",
0060  22 6c 61 74 69 22 3a 34 35 2e 38 33 35 35 34 39   "lati":45.835549
0070  2c 22 6c 6f 6e 67 22 3a 32 2e 32 38 31 31 34 34   ,"long":2.281144
0080  2c 22 61 6c 74 69 22 3a 31 31 30 2c 22 72 78 6e   ,"alti":110,"rxn
0090  62 22 3a 30 2c 22 72 78 6f 6b 22 3a 30 2c 22 72   b":0,"rxok":0,"r
00a0  78 66 77 22 3a 30 2c 22 61 63 6b 72 22 3a 31 30   xfw":0,"ackr":10
00b0  30 2e 30 2c 22 64 77 6e 62 22 3a 30 2c 22 74 78   0.0,"dwnb":0,"tx
00c0  6e 62 22 3a 30 7d 7d                              nb":0}}


LOPY : 

0000  70 4d 7b 28 cf d9 24 0a c4 02 72 b4 08 00 45 00   pM{(..$...r...E.
0010  00 bc <total length> 00 41 <identification> 00 00 ff 11 37 2c <checksum> c0 a8 01 64 c0 a8   ...A....7,...d..
0020  01 0f c0 02 06 f4 00 a8 <length> e5 a4 <checksum> 02 76 bb <random> 00 24 0a   ...........v..$.
0030  c4 ff ff 02 72 b4 7b 22 73 74 61 74 22 3a 20 7b   ....r.{"stat": {
0040  22 61 6c 74 69 22 3a 20 30 2c 20 22 72 78 6f 6b   "alti": 0, "rxok
0050  22 3a 20 30 2c 20 22 72 78 66 77 22 3a 20 30 2c   ": 0, "rxfw": 0,
0060  20 22 61 63 6b 72 22 3a 20 31 30 30 2e 30 2c 20    "ackr": 100.0, 
0070  22 64 77 6e 62 22 3a 20 30 2c 20 22 6c 6f 6e 67   "dwnb": 0, "long
0080  22 3a 20 30 2c 20 22 74 78 6e 62 22 3a 20 30 2c   ": 0, "txnb": 0,
0090  20 22 72 78 6e 62 22 3a 20 30 2c 20 22 74 69 6d    "rxnb": 0, "tim
00a0  65 22 3a 20 22 32 30 31 38 2d 31 30 2d 32 37 20   e": "2018-10-27 
00b0  31 37 3a 32 38 3a 34 31 20 47 4d 54 22 2c 20 22   17:28:41 GMT", "
00c0  6c 61 74 69 22 3a 20 30 7d 7d                     lati": 0}}

